{
  "contractName": "QrCode",
  "abi": [
    {
      "inputs": [],
      "stateMutability": "nonpayable",
      "type": "constructor"
    },
    {
      "anonymous": false,
      "inputs": [
        {
          "indexed": true,
          "internalType": "uint256",
          "name": "id",
          "type": "uint256"
        }
      ],
      "name": "ItemAdded_M",
      "type": "event"
    },
    {
      "anonymous": false,
      "inputs": [
        {
          "indexed": true,
          "internalType": "uint256",
          "name": "id",
          "type": "uint256"
        },
        {
          "indexed": false,
          "internalType": "string",
          "name": "itemName",
          "type": "string"
        },
        {
          "indexed": false,
          "internalType": "string",
          "name": "description",
          "type": "string"
        }
      ],
      "name": "ItemDetailsUpdated_M",
      "type": "event"
    },
    {
      "anonymous": false,
      "inputs": [
        {
          "indexed": true,
          "internalType": "uint256",
          "name": "id",
          "type": "uint256"
        }
      ],
      "name": "ItemRecorded_M",
      "type": "event"
    },
    {
      "anonymous": false,
      "inputs": [
        {
          "indexed": true,
          "internalType": "address",
          "name": "manufacturer",
          "type": "address"
        }
      ],
      "name": "ManufacturerAdded",
      "type": "event"
    },
    {
      "anonymous": false,
      "inputs": [
        {
          "indexed": true,
          "internalType": "address",
          "name": "admin",
          "type": "address"
        }
      ],
      "name": "PasswordChanged",
      "type": "event"
    },
    {
      "anonymous": false,
      "inputs": [
        {
          "indexed": false,
          "internalType": "string",
          "name": "retailer",
          "type": "string"
        }
      ],
      "name": "RetailerAdded",
      "type": "event"
    },
    {
      "anonymous": false,
      "inputs": [
        {
          "indexed": true,
          "internalType": "address",
          "name": "retailerAddress",
          "type": "address"
        }
      ],
      "name": "RetailerRemoved",
      "type": "event"
    },
    {
      "anonymous": false,
      "inputs": [
        {
          "indexed": true,
          "internalType": "address",
          "name": "newAdmin",
          "type": "address"
        }
      ],
      "name": "ownershipTransferred",
      "type": "event"
    },
    {
      "anonymous": false,
      "inputs": [
        {
          "indexed": false,
          "internalType": "uint256",
          "name": "_blockId",
          "type": "uint256"
        }
      ],
      "name": "qrHashDeleted",
      "type": "event"
    },
    {
      "anonymous": false,
      "inputs": [
        {
          "indexed": true,
          "internalType": "uint256",
          "name": "timestamp",
          "type": "uint256"
        }
      ],
      "name": "qrHashStored",
      "type": "event"
    },
    {
      "inputs": [
        {
          "internalType": "uint256",
          "name": "",
          "type": "uint256"
        }
      ],
      "name": "itemDetails",
      "outputs": [
        {
          "internalType": "uint256",
          "name": "blockId",
          "type": "uint256"
        },
        {
          "internalType": "string",
          "name": "qrHash",
          "type": "string"
        },
        {
          "internalType": "string",
          "name": "itemName",
          "type": "string"
        },
        {
          "internalType": "string",
          "name": "description",
          "type": "string"
        }
      ],
      "stateMutability": "view",
      "type": "function",
      "constant": true
    },
    {
      "inputs": [
        {
          "internalType": "address",
          "name": "",
          "type": "address"
        }
      ],
      "name": "manufacturerDetails",
      "outputs": [
        {
          "internalType": "address",
          "name": "manPublicAddress",
          "type": "address"
        },
        {
          "internalType": "string",
          "name": "fullName",
          "type": "string"
        },
        {
          "internalType": "string",
          "name": "email",
          "type": "string"
        },
        {
          "internalType": "string",
          "name": "brand",
          "type": "string"
        },
        {
          "internalType": "string",
          "name": "licenseUri",
          "type": "string"
        },
        {
          "internalType": "string",
          "name": "country",
          "type": "string"
        },
        {
          "internalType": "string",
          "name": "region",
          "type": "string"
        },
        {
          "internalType": "string",
          "name": "state",
          "type": "string"
        },
        {
          "internalType": "bool",
          "name": "agreement",
          "type": "bool"
        },
        {
          "internalType": "string",
          "name": "password",
          "type": "string"
        },
        {
          "internalType": "bool",
          "name": "isVerified",
          "type": "bool"
        },
        {
          "internalType": "bool",
          "name": "isRegistered",
          "type": "bool"
        },
        {
          "internalType": "bool",
          "name": "isLogin",
          "type": "bool"
        }
      ],
      "stateMutability": "view",
      "type": "function",
      "constant": true
    },
    {
      "inputs": [
        {
          "internalType": "address",
          "name": "",
          "type": "address"
        },
        {
          "internalType": "address",
          "name": "",
          "type": "address"
        }
      ],
      "name": "manufacturerToRetailerDetails",
      "outputs": [
        {
          "internalType": "address",
          "name": "publicAddress",
          "type": "address"
        },
        {
          "internalType": "string",
          "name": "name",
          "type": "string"
        },
        {
          "internalType": "string",
          "name": "location",
          "type": "string"
        },
        {
          "internalType": "string",
          "name": "email",
          "type": "string"
        },
        {
          "internalType": "string",
          "name": "password",
          "type": "string"
        }
      ],
      "stateMutability": "view",
      "type": "function",
      "constant": true
    },
    {
      "inputs": [
        {
          "internalType": "string",
          "name": "",
          "type": "string"
        }
      ],
      "name": "matchHashToId",
      "outputs": [
        {
          "internalType": "uint256",
          "name": "",
          "type": "uint256"
        }
      ],
      "stateMutability": "view",
      "type": "function",
      "constant": true
    },
    {
      "inputs": [
        {
          "internalType": "string",
          "name": "",
          "type": "string"
        }
      ],
      "name": "matchedItems",
      "outputs": [
        {
          "internalType": "bool",
          "name": "",
          "type": "bool"
        }
      ],
      "stateMutability": "view",
      "type": "function",
      "constant": true
    },
    {
      "inputs": [
        {
          "internalType": "address",
          "name": "",
          "type": "address"
        }
      ],
      "name": "retailerDetails",
      "outputs": [
        {
          "internalType": "address",
          "name": "publicAddress",
          "type": "address"
        },
        {
          "internalType": "string",
          "name": "name",
          "type": "string"
        },
        {
          "internalType": "string",
          "name": "location",
          "type": "string"
        },
        {
          "internalType": "string",
          "name": "email",
          "type": "string"
        },
        {
          "internalType": "string",
          "name": "password",
          "type": "string"
        }
      ],
      "stateMutability": "view",
      "type": "function",
      "constant": true
    },
    {
      "inputs": [],
      "name": "s_retailerID",
      "outputs": [
        {
          "internalType": "uint256",
          "name": "",
          "type": "uint256"
        }
      ],
      "stateMutability": "view",
      "type": "function",
      "constant": true
    },
    {
      "inputs": [
        {
          "internalType": "bytes32",
          "name": "_password",
          "type": "bytes32"
        }
      ],
      "name": "loginSysOwner",
      "outputs": [],
      "stateMutability": "nonpayable",
      "type": "function"
    },
    {
      "inputs": [
        {
          "internalType": "bytes32",
          "name": "oldPassword",
          "type": "bytes32"
        },
        {
          "internalType": "bytes32",
          "name": "_newPassword",
          "type": "bytes32"
        }
      ],
      "name": "changePassword",
      "outputs": [],
      "stateMutability": "nonpayable",
      "type": "function"
    },
    {
      "inputs": [
        {
          "internalType": "address",
          "name": "_address",
          "type": "address"
        }
      ],
      "name": "transferOwnership",
      "outputs": [],
      "stateMutability": "nonpayable",
      "type": "function"
    },
    {
      "inputs": [
        {
          "internalType": "address",
          "name": "_manPublicAddress",
          "type": "address"
        },
        {
          "internalType": "string",
          "name": "_fullName",
          "type": "string"
        },
        {
          "internalType": "string",
          "name": "_email",
          "type": "string"
        },
        {
          "internalType": "string",
          "name": "_brand",
          "type": "string"
        },
        {
          "internalType": "string",
          "name": "_licenseUri",
          "type": "string"
        },
        {
          "internalType": "string",
          "name": "_country",
          "type": "string"
        },
        {
          "internalType": "string",
          "name": "_region",
          "type": "string"
        },
        {
          "internalType": "string",
          "name": "_state",
          "type": "string"
        },
        {
          "internalType": "bool",
          "name": "_agreement",
          "type": "bool"
        },
        {
          "internalType": "string",
          "name": "_password",
          "type": "string"
        }
      ],
      "name": "signUpManufacturer",
      "outputs": [],
      "stateMutability": "nonpayable",
      "type": "function"
    },
    {
      "inputs": [
        {
          "internalType": "address",
          "name": "_manufacturerAddress",
          "type": "address"
        }
      ],
      "name": "verifyManufacturer",
      "outputs": [],
      "stateMutability": "nonpayable",
      "type": "function"
    },
    {
      "inputs": [
        {
          "internalType": "address",
          "name": "_MNPublicAddress",
          "type": "address"
        },
        {
          "internalType": "string",
          "name": "_password",
          "type": "string"
        }
      ],
      "name": "manufacturerLogin",
      "outputs": [],
      "stateMutability": "nonpayable",
      "type": "function"
    },
    {
      "inputs": [
        {
          "internalType": "address",
          "name": "_publicAddress",
          "type": "address"
        },
        {
          "internalType": "string",
          "name": "_name",
          "type": "string"
        },
        {
          "internalType": "string",
          "name": "_location",
          "type": "string"
        },
        {
          "internalType": "string",
          "name": "_email",
          "type": "string"
        },
        {
          "internalType": "string",
          "name": "_password",
          "type": "string"
        }
      ],
      "name": "addRetailer",
      "outputs": [],
      "stateMutability": "nonpayable",
      "type": "function"
    },
    {
      "inputs": [
        {
          "internalType": "address",
          "name": "_retailerAddress",
          "type": "address"
        }
      ],
      "name": "removeRetailer",
      "outputs": [],
      "stateMutability": "nonpayable",
      "type": "function"
    },
    {
      "inputs": [
        {
          "internalType": "string",
          "name": "_qrHash",
          "type": "string"
        }
      ],
      "name": "storeQrHash",
      "outputs": [],
      "stateMutability": "nonpayable",
      "type": "function"
    },
    {
      "inputs": [
        {
          "internalType": "uint256",
          "name": "_blockId",
          "type": "uint256"
        }
      ],
      "name": "deleteQrHash",
      "outputs": [],
      "stateMutability": "nonpayable",
      "type": "function"
    },
    {
      "inputs": [],
      "name": "getManufacturerArray",
      "outputs": [
        {
          "internalType": "address[]",
          "name": "",
          "type": "address[]"
        }
      ],
      "stateMutability": "view",
      "type": "function",
      "constant": true
    },
    {
      "inputs": [
        {
          "internalType": "address",
          "name": "_manPublicAddress",
          "type": "address"
        }
      ],
      "name": "getManufacturer",
      "outputs": [
        {
          "internalType": "address",
          "name": "manPublicAddress",
          "type": "address"
        },
        {
          "internalType": "string",
          "name": "email",
          "type": "string"
        },
        {
          "internalType": "string",
          "name": "fullName",
          "type": "string"
        },
        {
          "internalType": "string",
          "name": "brand",
          "type": "string"
        },
        {
          "internalType": "string",
          "name": "licenseUri",
          "type": "string"
        },
        {
          "internalType": "string",
          "name": "country",
          "type": "string"
        },
        {
          "internalType": "string",
          "name": "region",
          "type": "string"
        },
        {
          "internalType": "string",
          "name": "state",
          "type": "string"
        },
        {
          "internalType": "bool",
          "name": "agreement",
          "type": "bool"
        },
        {
          "internalType": "bool",
          "name": "isVerified",
          "type": "bool"
        }
      ],
      "stateMutability": "view",
      "type": "function",
      "constant": true
    },
    {
      "inputs": [],
      "name": "getManfItemIDList",
      "outputs": [
        {
          "internalType": "uint256[]",
          "name": "",
          "type": "uint256[]"
        }
      ],
      "stateMutability": "view",
      "type": "function",
      "constant": true
    },
    {
      "inputs": [
        {
          "internalType": "address",
          "name": "_manPublicAddress",
          "type": "address"
        },
        {
          "internalType": "uint256",
          "name": "_blockId",
          "type": "uint256"
        }
      ],
      "name": "getQrHashAndID",
      "outputs": [
        {
          "internalType": "string",
          "name": "qrHash",
          "type": "string"
        },
        {
          "internalType": "uint256",
          "name": "blockId",
          "type": "uint256"
        }
      ],
      "stateMutability": "view",
      "type": "function",
      "constant": true
    },
    {
      "inputs": [
        {
          "internalType": "string",
          "name": "_qrHash",
          "type": "string"
        },
        {
          "internalType": "uint256",
          "name": "_blockId",
          "type": "uint256"
        },
        {
          "internalType": "string",
          "name": "_itemName",
          "type": "string"
        },
        {
          "internalType": "string",
          "name": "_description",
          "type": "string"
        }
      ],
      "name": "addProduct",
      "outputs": [],
      "stateMutability": "nonpayable",
      "type": "function"
    },
    {
      "inputs": [
        {
          "internalType": "string",
          "name": "_qrHash",
          "type": "string"
        }
      ],
      "name": "scanProduct",
      "outputs": [
        {
          "internalType": "bool",
          "name": "",
          "type": "bool"
        }
      ],
      "stateMutability": "view",
      "type": "function",
      "constant": true
    },
    {
      "inputs": [],
      "name": "getProductArray",
      "outputs": [
        {
          "internalType": "string[]",
          "name": "",
          "type": "string[]"
        }
      ],
      "stateMutability": "view",
      "type": "function",
      "constant": true
    },
    {
      "inputs": [
        {
          "internalType": "string",
          "name": "_qrHash",
          "type": "string"
        }
      ],
      "name": "getProduct",
      "outputs": [
        {
          "internalType": "string",
          "name": "name",
          "type": "string"
        },
        {
          "internalType": "string",
          "name": "description",
          "type": "string"
        }
      ],
      "stateMutability": "view",
      "type": "function",
      "constant": true
    }
  ],
  "bytecode": "0x60803461013257600160a060020a03196000913382845416178355602081019060208252600560408201527f61646d696e0000000000000000000000000000000000000000000000000000006060820152606081526080810167ffffffffffffffff92828210848311176101055781604052825190209260e083019082821090821117610105579160c09186936040523390528360a0820152015233826001541617600155600255604060ff19928360035416600355338152600560205220600181036100d7575b6040516125839081620001388239f35b600291339082541617815581546001820155019060ff806003541615159183541691161790553880806100c7565b6024867f4e487b710000000000000000000000000000000000000000000000000000000081526041600452fd5b600080fdfe608080604052600436101561001357600080fd5b7c010000000000000000000000000000000000000000000000000000000060003504908163191bcef614611d3c575080631fb4e3f014611cb5578063292785fc14611af05780635c9e052a146119365780635ed30b2814611844578063656807951461175357806368111cce146116ae5780636c3a98ae146116905780636f3911bc146115c857806370099ec814611499578063719f29721461119357806377f40e33146111445780637a788e0a1461108e5780638d11d5ff14610ffb57806396df344614610fb8578063bb56926714610f4f578063d64a3d8b14610e31578063d732ce3214610a4a578063daa7f64b1461060b578063de5df39814610577578063e38483a314610400578063f2fde38b1461036b578063f7e7ce4d14610326578063fb262c30146102c95763fe244c371461014e57600080fd5b346102c45760203660031901126102c457600160a060020a0380610170611f03565b1660005260066020526040600020908154166001820161018f90612016565b9161019c60028201612016565b6101a860038301612016565b916101b560048201612016565b6101c160058301612016565b6101cd60068401612016565b906101da60078501612016565b92600885015460ff1696600986016101f190612016565b95600a0154966040519a8b9a8b526101a08060208d01528b0161021391611f3c565b8a810360408c015261022491611f3c565b89810360608b015261023591611f3c565b88810360808a015261024691611f3c565b87810360a089015261025791611f3c565b86810360c088015261026891611f3c565b85810360e087015261027991611f3c565b6101009315158486015284810361012086015261029591611f3c565b9160ff82161515610140850152810460ff16151561016084015262010000900460ff1615156101808301520390f35b600080fd5b346102c45760203660031901126102c45760043567ffffffffffffffff81116102c4576103136020610300819336906004016120bb565b8160405193828580945193849201611f19565b8101600e81520301902054604051908152f35b346102c45760203660031901126102c45760043567ffffffffffffffff81116102c45761036161035c60209236906004016120bb565b6124c0565b6040519015158152f35b346102c45760203660031901126102c457610384611f03565b600160a060020a0390816000541661039d813314612192565b6103a8331515612192565b60005260056020526000600260408220828155826001820155015516807fac9a252a3ed2d3fcc198677953ffe98ac492e191a4605978c655f8ce4ae80676600080a2600160a060020a03196000541617600055600080f35b346102c4576020806003193601126102c45760043567ffffffffffffffff81116102c4576104329036906004016120bb565b336000526006825261045260ff610100600a60406000200154041661235c565b61045d3315156123d0565b336000526006825260ff600a604060002001541615610530576104bd90427f9376d1f5ae2781161467d7ecca7bb235a2f861272b40eca70ea487d3005004d0600080a233600052600b83526040600020426000528352604060002061221d565b600c549068010000000000000000821015610517576104e4826001600d9401600c55612325565b60088254910260020a9081600003809242021691191617905542600052526040600020600160ff19825416179055600080f35b60e060020a634e487b7102600052604160045260246000fd5b6064826040519060e560020a62461bcd0282526004820152601c60248201527f6d616e756661637475726572206973206e6f74207665726966696564000000006044820152fd5b346102c45760403660031901126102c457610590611f03565b602435600160a060020a03918282168092036102c457821660005260086020526040600020906000526020526040600020908154166106076105d460018401612016565b926105e160028201612016565b906105fa60046105f360038401612016565b9201612016565b916040519586958661213a565b0390f35b346102c45760a03660031901126102c457610624611f03565b67ffffffffffffffff6024358181116102c4576106459036906004016120bb565b604480358381116102c45761065e9036906004016120bb565b60649081358581116102c4576106789036906004016120bb565b916084358681116102c4576106919036906004016120bb565b933360005260066020526106b360ff610100600a60406000200154041661235c565b6106be3315156123d0565b600160a060020a038816156109df5785511561099b5782511561095757835115610913578451156108cf5750507f73d87f380e0a7b768520275cc06c6143276be057013aa419a14c7f88e47f915f60405160208152806107216020820188611f3c565b0390a16040519360a0850195858710908711176105175761085295604052600160a060020a038716855260208501526040840152606083015260808201523360005260086020526040600020600160a060020a0384166000526020526107e06040600020600160a060020a03835116600160a060020a03198254161781556107b060208401516001830161221d565b6107c160408401516002830161221d565b6107d260608401516003830161221d565b60046080840151910161221d565b600160a060020a038316600052600960205260046080604060002092600160a060020a03815116600160a060020a031985541617845561082760208201516001860161221d565b61083860408201516002860161221d565b61084960608201516003860161221d565b0151910161221d565b600a5468010000000000000000811015610517576001810180600a558110156108b657600160a060020a03907fc65a7bb8d6351c1cf70c95a316cc6a92839c986682d98bc35f958f4883f9d2a8019116600160a060020a0319825416179055600080f35b60e060020a634e487b7102600052603260045260246000fd5b7f50686f6e65206e756d6265722063616e6e6f7420626520656d707479000000006040519160e560020a62461bcd02835260206004840152601c6024840152820152fd5b7f456d61696c20616464726573732063616e6e6f7420626520656d7074790000006040519160e560020a62461bcd02835260206004840152601d6024840152820152fd5b7f4c6f636174696f6e206e616d652063616e6e6f7420626520656d7074790000006040519160e560020a62461bcd02835260206004840152601d6024840152820152fd5b7f52657461696c6572206e616d652063616e6e6f7420626520656d7074790000006040519160e560020a62461bcd02835260206004840152601d6024840152820152fd5b7f64000000000000000000000000000000000000000000000000000000000000006084927f52657461696c6572207075626c69632061646472657373206e6f742076616c696040519360e560020a62461bcd0285526020600486015260216024860152840152820152fd5b346102c45760803660031901126102c45767ffffffffffffffff6004358181116102c457610a7c9036906004016120bb565b6024918235906044358181116102c457610a9a9036906004016120bb565b906064359081116102c457610ab39036906004016120bb565b903360005260209260068452610ad760ff610100600a60406000200154041661235c565b610ae23315156123d0565b33600052600b84526040600020816000528452610b0b85610b066040600020612016565b6124f8565b15610deb57604051855190858181890193610b27818387611f19565b8101600f8152030190209060ff199160018382541617905582600052600d8652600160ff60406000205416151503610da557835115610d5f57845115610d195792610c8183610c8b936001610c328a600399858e8d9b610c939f9e7f63bcdba1660b19ba3aaaf6afe05409cc2811b84ad557ca33f7eda874ac3a89b0908c610bda604051928392867f611520fe479942fc842c72a2974cc0bf4746653a8b34285ba197c7192fd4721d600080a283612112565b0390a2836040518092847f2c43e921afd657149a59b6382398172493954880204131eb2a51b28468908389600080a251610c15818388611f19565b8101600e815203019020558d604051938492839251928391611f19565b8101600f81520301902091825416179055601060405197610c5289611fbc565b828952808901928b845260408a0195865260608a0197885260005252604060002096518755516001870161221d565b516002850161221d565b51910161221d565b60115468010000000000000000811015610d01576001810180601155811015610ce957610ce7925060116000527f31ecc21a745e3968a04e9570e4425bc18fa8019c68028196b546d1669c200c680161221d565b005b8260e060020a634e487b710260005260326004526000fd5b8260e060020a634e487b710260005260416004526000fd5b606486601b8a6040519260e560020a62461bcd02845260048401528201527f4465736372697074696f6e2063616e6e6f7420626520656d70747900000000006044820152fd5b60648660198a6040519260e560020a62461bcd02845260048401528201527f4974656d206e616d652063616e6e6f7420626520656d707479000000000000006044820152fd5b606486600f8a6040519260e560020a62461bcd02845260048401528201527f49442069736e27742073746f72656400000000000000000000000000000000006044820152fd5b6064846011886040519260e560020a62461bcd02845260048401528201527f486173682069736e27742073746f7265640000000000000000000000000000006044820152fd5b346102c4576020806003193601126102c457610e4b611f03565b600160a060020a0390610e6382600054163314612192565b610e6e331515612192565b1690816000526006815260ff610100600a60406000200154041615610f0857816000526006815260ff600a6040600020015416610ec25760009182526006905260409020600a01805460ff19166001179055005b6064906040519060e560020a62461bcd02825280600483015260248201527f6d616e75666163747572657220697320616c72656164792076657269666965646044820152fd5b6064906040519060e560020a62461bcd0282526004820152601e60248201527f6d616e756661637475726572206973206e6f74207265676973746572656400006044820152fd5b346102c45760403660031901126102c457610fae610f6b611f03565b600160a060020a036024359116600052600b602052604060002081600052602052610f996040600020612016565b90604051928392604084526040840190611f3c565b9060208301520390f35b346102c45760203660031901126102c457600160a060020a0380610fda611f03565b1660005260096020526040600020908154166106076105d460018401612016565b346102c45760203660031901126102c4576004357f4140c73226c8ea512653d2920a7fbe10a0c0fe3c5f07aee8be2cad8b2b9a772f6020604051838152a133600052600b60205260406000208160005260205261105b6040600020612444565b61106481612325565b60088254910260020a60000319169055600052600d602052604060002060ff198154169055600080f35b346102c45760003660031901126102c45760405180600c5480835260208093018091600c6000527fdf6966c971051c3d54ec59162606531493a51404a002842f56009d7e5cf4a8c79060005b868282106111305786866110f082880383611ff4565b604051928392818401908285525180915260408401929160005b82811061111957505050500390f35b83518552869550938101939281019260010161110a565b8354855290930192600192830192016110da565b346102c45760203660031901126102c45760043567ffffffffffffffff81116102c45760ff61117d6020610300819436906004016120bb565b8101600f81520301902054166040519015158152f35b346102c4576101403660031901126102c4576111ad611f03565b67ffffffffffffffff6024358181116102c4576111ce9036906004016120bb565b906044358181116102c4576111e79036906004016120bb565b906064358181116102c4576112009036906004016120bb565b6084358281116102c4576112189036906004016120bb565b60a4358381116102c4576112309036906004016120bb565b60c4358481116102c4576112489036906004016120bb565b9160e4358581116102c4576112619036906004016120bb565b93610104359586151587036102c457610124359081116102c4576112899036906004016120bb565b9660405198337f561138658ca49a8540dc70dcfe64c9026c1c5b9344642242dd6562970f9c1278600080a26112bd8a611f9f565b600160a060020a038b168a5260208a015260408901526060880152608087015260a086015260c085015260e08401521515610100830152610120820152600061014082015260016101608201526000610180820152336000526006602052600a6040600020600160a060020a03835116600160a060020a031982541617815561134d60208401516001830161221d565b61135e60408401516002830161221d565b61136f60608401516003830161221d565b61138060808401516004830161221d565b61139160a08401516005830161221d565b6113a260c08401516006830161221d565b6113b360e08401516007830161221d565b6113d36101008401511515600883019060ff801983541691151516179055565b6113e56101208401516009830161221d565b01906114046101408201511515839060ff801983541691151516179055565b61016081015115159061ff0061010062ff0000620100006101808754950151151502169302169062ffff00191617179055600754680100000000000000008110156105175760018101806007558110156108b657600160a060020a03907fa66cc928b5edb82af9bd49922954155ab7b0942694bea4ce44661d9a8736c688019116600160a060020a0319825416179055600080f35b346102c4576020806003193601126102c4576114b3611f03565b9033600052600681526114d460ff610100600a60406000200154041661235c565b6114df3315156123d0565b3360005260088152604060002091600160a060020a03809116928360005282528281604060002054160361158157826009937fdb7176e79cffef81cb01767dd0447a0b24bb72ca9778d4b245581086b2a7e6db600080a233600052600883526040600020816000528352611556604060002061248c565b336000526008835260406000209060005282526040600020541660005252610ce7604060002061248c565b6064826040519060e560020a62461bcd0282526004820152601260248201527f52657461696c6572206e6f7420666f756e6400000000000000000000000000006044820152fd5b346102c45760003660031901126102c457604051806007548083526020809301809160076000527fa66cc928b5edb82af9bd49922954155ab7b0942694bea4ce44661d9a8736c6889060005b8682821061167357868661162a82880383611ff4565b604051928392818401908285525180915260408401929160005b82811061165357505050500390f35b8351600160a060020a031685528695509381019392810192600101611644565b8354600160a060020a031685529093019260019283019201611614565b346102c45760003660031901126102c4576020600454604051908152f35b346102c45760203660031901126102c45760043567ffffffffffffffff81116102c45760206103006116e49236906004016120bb565b8101600e8152030190205460005260106020526060604060002060405161170a81611fbc565b8154815261171a60018301612016565b602082015261173e600361173060028501612016565b936040840194855201612016565b92839101525161060760405192839283612112565b346102c4576020806003193601126102c45761177b600160a060020a03600054163314612192565b611786331515612192565b33600052600581526001604060002001546040518281019060043582528381526117af81611fd8565b519020036117d75760059033600052526002604060002001600160ff19825416179055600080f35b6084906040519060e560020a62461bcd0282526004820152602360248201527f496e76616c69642070617373776f7264206f66206163636f756e74206164647260448201527f65737300000000000000000000000000000000000000000000000000000000006064820152fd5b346102c45760003660031901126102c45760115467ffffffffffffffff8111610517576040519060209061187c828083020184611ff4565b808352818301908160116000527f31ecc21a745e3968a04e9570e4425bc18fa8019c68028196b546d1669c200c686000915b83831061191457505050506040519180830193818452518094526040830193604082820285010192916000955b8287106118e85785850386f35b909192938280611904600193603f198a82030186528851611f3c565b96019201960195929190926118db565b6001868192611925859a999a612016565b8152019201920191909594956118ae565b346102c45760403660031901126102c45761194f611f03565b60243567ffffffffffffffff81116102c45761196f9036906004016120bb565b336000526020906006825260ff610100600a60406000200154041615611aa957336000526006825260ff600a604060002001541615611a3c576119c4903360005260068352610b066009604060002001612016565b156119f557600160a060020a036006921660005252600a6040600020016201000062ff000019825416179055600080f35b6064906040519060e560020a62461bcd0282526004820152601b60248201527f496e76616c69642061646472657373206f722070617373776f726400000000006044820152fd5b6084826040519060e560020a62461bcd0282526004820152602660248201527f596f7572206e6f74207665726966696564206173206d616e756661637475726560448201527f72207965742100000000000000000000000000000000000000000000000000006064820152fd5b6064826040519060e560020a62461bcd0282526004820152601860248201527f596f7572206e6f742072656769737465726564207965742100000000000000006044820152fd5b346102c45760403660031901126102c457602435611b1a600160a060020a03600054163314612192565b611b25331515612192565b33600052602060058152600160406000200154604051828101906004358252838152611b5081611fd8565b51902003611c6e57336000526005815260016040600020015460405182810190848252838152611b7f81611fd8565b51902014611c27573360005260058152600160ff60026040600020015416151503611be057600590337f85a52c4d6d605a61db8affa2383ae4d5aeefe6f4363c35174504042b4a0ee9b6600080a23360005252600160406000200155600080f35b6064906040519060e560020a62461bcd0282526004820152600d60248201527f4e6f74206c6f6767656420696e000000000000000000000000000000000000006044820152fd5b6064906040519060e560020a62461bcd0282526004820152601460248201527f496e76616c6964206e65772070617373776f72640000000000000000000000006044820152fd5b6064906040519060e560020a62461bcd0282526004820152601460248201527f496e76616c6964206f6c642070617373776f72640000000000000000000000006044820152fd5b346102c45760203660031901126102c457600435600052601060205260406000208054610607611ce760018401612016565b92611d2e611d036003611cfc60028501612016565b9301612016565b91611d206040519687968752608060208801526080870190611f3c565b908582036040870152611f3c565b908382036060850152611f3c565b346102c45760203660031901126102c457600160a060020a0380611d5e611f03565b1660005260066020526040600020611d7583611f9f565b805482168352611d8760018201612016565b6020840190815291611d9b60028301612016565b6040850190815292611daf60038401612016565b60608601908152611dc260048501612016565b60808701908152611dd560058601612016565b60a08801908152611de860068701612016565b60c0890190815290611dfc60078801612016565b9260e08a01938452600888015460ff169461010098898c01961515875260098101611e2690612016565b6101208d0152600a01549760ff891615159b8c996101409d8e8301528b810460ff16151561016083015262010000900460ff1615156101808201525116995196519051915192519351945195511515966040519b8c9b8c528060208d01528b01611e8f91611f3c565b8a810360408c0152611ea091611f3c565b89810360608b0152611eb191611f3c565b88810360808a0152611ec291611f3c565b87810360a0890152611ed391611f3c565b86810360c0880152611ee491611f3c565b85810360e0870152611ef591611f3c565b928401526101208301520390f35b60043590600160a060020a03821682036102c457565b60005b838110611f2c5750506000910152565b8181015183820152602001611f1c565b90602091611f5581518092818552858086019101611f19565b601f01601f1916010190565b9060016002830492168015611f95575b6020831014611f7c57565b60e060020a634e487b7102600052602260045260246000fd5b91607f1691611f71565b6101a0810190811067ffffffffffffffff82111761051757604052565b6080810190811067ffffffffffffffff82111761051757604052565b6040810190811067ffffffffffffffff82111761051757604052565b90601f8019910116810190811067ffffffffffffffff82111761051757604052565b906040519182600082549261202a84611f61565b9081845260019485811690816000146120995750600114612056575b505061205492500383611ff4565b565b9093915060005260209081600020936000915b81831061208157505061205493508201013880612046565b85548884018501529485019487945091830191612069565b91505061205494506020925060ff191682840152151581028201013880612046565b81601f820112156102c45780359067ffffffffffffffff821161051757604051926120f0601f8401601f191660200185611ff4565b828452602083830101116102c457816000926020809301838601378301015290565b909161212961213793604084526040840190611f3c565b916020818403910152611f3c565b90565b9390612137959361216861218494600160a060020a036121769416885260a0602089015260a0880190611f3c565b908682036040880152611f3c565b908482036060860152611f3c565b916080818403910152611f3c565b1561219957565b608460405160e560020a62461bcd02815260206004820152602960248201527f4f6e6c792073797374656d206f776e65722063616e20706572666f726d20746860448201527f697320616374696f6e00000000000000000000000000000000000000000000006064820152fd5b818110612211575050565b60008155600101612206565b9080519067ffffffffffffffff821161051757819061223c8454611f61565b601f81116122e7575b5060209081601f84116001146122815750600092612276575b5050816002029160080260020a600019041916179055565b01519050388061225e565b60008681528181209450601f198616915b8282106122cf57505091600293918560019694106122b4575b50505002019055565b01516008601f841602840a60001904191690553880806122ab565b80600186978294978701518155019601940190612292565b612315908560005260206000206020601f8601048101916020861061231b575b601f60209101040190612206565b38612245565b9091508190612307565b600c548110156108b657600c6000527fdf6966c971051c3d54ec59162606531493a51404a002842f56009d7e5cf4a8c70190600090565b1561236357565b608460405160e560020a62461bcd02815260206004820152602a60248201527f4f6e6c79206d616e7566616374757265722063616e206164642072657461696c60448201527f65722064657461696c73000000000000000000000000000000000000000000006064820152fd5b156123d757565b608460405160e560020a62461bcd02815260206004820152602960248201527f4f6e6c79206d616e7566616374757265722063616e20706572666f726d20746860448201527f697320616374696f6e00000000000000000000000000000000000000000000006064820152fd5b61244e8154611f61565b9081612458575050565b81601f6000931160011461246a575055565b9080839182526124886020601f818520950104840160018501612206565b5555565b600461205491600081556124a260018201612444565b6124ae60028201612444565b6124ba60038201612444565b01612444565b6124db602060ff928160405193828580945193849201611f19565b8101600f81520301902054166000146124f357600190565b600090565b90604051916020926125268482816125198183019687815193849201611f19565b8101038084520182611ff4565b519020916125466040519182816125198183019687815193849201611f19565b519020149056fea264697066735822122097821bb5dba27797214c4849376efe26962f7c3c1d90082a65c799440d6c060064736f6c63430008130033",
  "immutableReferences": {},
  "source": "// SPDX-License-Identifier: MIT\npragma solidity ^0.8.19;\n\ncontract QrCode {\n    event ManufacturerAdded(address indexed manufacturer);\n    event RetailerAdded(string retailer);\n    event RetailerRemoved(address indexed retailerAddress);\n\n    event PasswordChanged(address indexed admin);\n    event ownershipTransferred(address indexed newAdmin);\n\n    event ItemAdded_M(uint256 indexed id);\n    event ItemDetailsUpdated_M(\n        uint256 indexed id,\n        string itemName,\n        string description\n    );\n    event ItemRecorded_M(uint256 indexed id);\n\n    event qrHashStored(uint indexed timestamp);\n    event qrHashDeleted(uint256 _blockId);\n\n    struct Manufacturer {\n        address manPublicAddress;\n        string fullName;\n        string email;\n        string brand;\n        string licenseUri;\n        string country;\n        string region;\n        string state;\n        bool agreement;\n        string password;\n        bool isVerified;\n        bool isRegistered;\n        bool isLogin;\n    }\n\n    struct Retailer {\n        address publicAddress;\n        string name;\n        string location;\n        string email;\n        string password;\n    }\n\n    struct ItemDetails {\n        uint256 blockId;\n        string qrHash;\n        string itemName;\n        string description;\n    }\n\n    //@dev create system account structure\n    struct SystemOwner {\n        address sysOwner;\n        bytes32 password; /*audit*/\n        bool isLogin;\n    }\n\n    address private owner;\n    SystemOwner private sysowner;\n\n    uint256 public s_retailerID;\n\n    mapping(address => SystemOwner) private sysOwnerMap;\n\n    mapping(address => Manufacturer) public manufacturerDetails;\n    address[] private manufactureAddressArray; // manufacturer address array\n\n    mapping(address => mapping(address => Retailer)) public manufacturerToRetailerDetails;\n    mapping(address => Retailer) public retailerDetails;\n    address[] private retailerDetailsArray;\n\n    //STORING\n    mapping(address => mapping(uint256 => string)) private qrHashMapByManufacturer; // stored by manufacturer when generating hash + id\n\n    uint256[] private manufacturerIDHashArr; //scanned by only manufacturer\n    mapping(uint => bool) private storedIDs; //just stored\n\n    //MATCHING\n    mapping(string => uint256) public matchHashToId; //used by users when scanning\n\n    mapping(string => bool) public matchedItems; //matched hash to items\n\n    mapping(uint256 => ItemDetails) public itemDetails;\n    string[] private productsArray;\n\n    constructor() {\n        owner = msg.sender;\n        sysowner = SystemOwner(owner, keccak256(abi.encode((\"admin\"))), false);\n        sysOwnerMap[owner] = sysowner;\n    }\n\n    modifier onlySysOwner() {\n        require(\n            msg.sender == owner,\n            \"Only system owner can perform this action\"\n        );\n        require(\n            msg.sender != address(0),\n            \"Only system owner can perform this action\"\n        );\n        _;\n    }\n\n    modifier onlyManufacturer() {\n        require(\n            manufacturerDetails[msg.sender].isRegistered,\n            \"Only manufacturer can add retailer details\"\n        );\n        require(\n            msg.sender != address(0),\n            \"Only manufacturer can perform this action\"\n        );\n        _;\n    }\n\n    /*@dev System Owner functions*/\n    function loginSysOwner(\n        bytes32 _password\n    ) external onlySysOwner {\n        require(\n            sysOwnerMap[msg.sender].password ==\n                keccak256(abi.encode(_password)),\n            \"Invalid password of account address\"\n        );\n        sysOwnerMap[msg.sender].isLogin = true;\n    }\n\n    function changePassword(\n        bytes32 oldPassword,\n        bytes32 _newPassword\n    ) external onlySysOwner {\n        require(\n            sysOwnerMap[msg.sender].password ==\n                keccak256(abi.encode(oldPassword)),\n            \"Invalid old password\"\n        );\n        require(_newPassword.length > 0, \"Password should not be empty\");\n        require(\n            sysOwnerMap[msg.sender].password !=\n                keccak256(abi.encode(_newPassword)),\n            \"Invalid new password\"\n        );\n        require(sysOwnerMap[msg.sender].isLogin == true, \"Not logged in\");\n\n        emit PasswordChanged(msg.sender);\n        sysOwnerMap[msg.sender].password = _newPassword;\n    }\n\n    function transferOwnership(address _address) external onlySysOwner {\n        delete sysOwnerMap[owner];\n        emit ownershipTransferred(_address);\n        owner = _address;\n        sysOwnerMap[owner];\n    }\n\n    /**@dev Manufacturer functions*/\n    function signUpManufacturer(\n        address _manPublicAddress,\n        string memory _fullName,\n        string memory _email,\n        string memory _brand,\n        string memory _licenseUri,\n        string memory _country,\n        string memory _region,\n        string memory _state,\n        bool _agreement,\n        string memory _password\n    ) external {\n       /* require(msg.sender != owner, \"Address shouldn't be system owner\");\n        require(_manPublicAddress != address(0), \"Address not valid\");\n        require(\n            manufacturerDetails[_manPublicAddress].isRegistered,\n            \"Manufacturer is already registered\"\n        );\n        require(bytes(_fullName).length > 0,\"Manufacturer name shouldn't be empty\");\n        require(bytes(_email).length > 0, \"Email address shouldn't be empty\");\n        require(bytes(_brand).length > 0, \"Brand shouldn't be empty\");\n        require(bytes(_licenseUri).length > 0, \"License Uri shouldn't be empty\");\n        require(bytes(_country).length > 0, \"Country shouldn't be empty\");\n        require(bytes(_region).length > 0, \"Region shouldn't be empty\");\n        require(bytes(_state).length > 0, \"State shouldn't be empty\");\n        require(bytes(_password).length > 0, \"Password shouldn't be empty\");*/\n\n        emit ManufacturerAdded(msg.sender);\n        manufacturerDetails[msg.sender] = Manufacturer(\n            _manPublicAddress,\n            _fullName,\n            _email,\n            _brand,\n            _licenseUri,\n            _country,\n            _region,\n            _state,\n            _agreement,\n            _password,\n            false,\n            true,\n            false\n        );\n        manufactureAddressArray.push(_manPublicAddress);\n    }\n\n    function verifyManufacturer(address _manufacturerAddress) public onlySysOwner{\n        require(manufacturerDetails[_manufacturerAddress].isRegistered, \"manufacturer is not registered\");\n        require(!manufacturerDetails[_manufacturerAddress].isVerified, \"manufacturer is already verified\");\n        manufacturerDetails[_manufacturerAddress].isVerified = true;\n    }\n\n    function manufacturerLogin(address _MNPublicAddress, string memory _password) public {\n        require(manufacturerDetails[msg.sender].isRegistered, \"Your not registered yet!\");\n        require(manufacturerDetails[msg.sender].isVerified, \"Your not verified as manufacturer yet!\");\n        // require(!manufacturerDetails[msg.sender].isLogin, \"Your Already login\");\n        require(compareStrings(manufacturerDetails[msg.sender].password, _password), \"Invalid address or password\");\n\n        manufacturerDetails[_MNPublicAddress].isLogin = true;\n    }\n\n    function addRetailer(\n        address _publicAddress,\n        string memory _name,\n        string memory _location,\n        string memory _email,\n        string memory _password\n    ) external onlyManufacturer {\n        require(_publicAddress != address(0), \"Retailer public address not valid\");\n        require(bytes(_name).length > 0, \"Retailer name cannot be empty\");\n        require(bytes(_location).length > 0, \"Location name cannot be empty\");\n        require(bytes(_email).length > 0, \"Email address cannot be empty\");\n        require(bytes(_password).length > 0, \"Phone number cannot be empty\");\n\n        emit RetailerAdded(_name);\n        Retailer memory retailer = Retailer(\n            _publicAddress,\n            _name,\n            _location,\n            _email,\n            _password\n        );\n        manufacturerToRetailerDetails[msg.sender][_publicAddress] = retailer;\n        retailerDetails[_publicAddress] = retailer;\n        retailerDetailsArray.push(_publicAddress);\n    }\n\n    function removeRetailer(address _retailerAddress) external onlyManufacturer {\n        require(\n            manufacturerToRetailerDetails[msg.sender][_retailerAddress].publicAddress ==\n                _retailerAddress,\n            \"Retailer not found\"\n        );\n        emit RetailerRemoved(_retailerAddress);\n        delete manufacturerToRetailerDetails[msg.sender][_retailerAddress];\n        delete retailerDetails[manufacturerToRetailerDetails[msg.sender][_retailerAddress].publicAddress];\n    }\n\n    function storeQrHash(string memory _qrHash) external onlyManufacturer{\n        require(manufacturerDetails[msg.sender].isVerified, \"manufacturer is not verified\");\n        uint256 timestamp = block.timestamp;\n        emit qrHashStored(timestamp);\n\n        qrHashMapByManufacturer[msg.sender][timestamp] = _qrHash;\n        manufacturerIDHashArr.push(timestamp);\n        storedIDs[timestamp] = true;\n    }\n\n    function deleteQrHash(uint _blockId) external {\n        // onlyManufacturer\n        emit qrHashDeleted(_blockId);\n        delete qrHashMapByManufacturer[msg.sender][_blockId];\n        delete manufacturerIDHashArr[_blockId];\n        delete storedIDs[_blockId];\n    }\n\n    /// @dev returns manufacturer address array to the frontend\n    function getManufacturerArray()\n        external\n        view\n        returns (address[] memory)\n    {\n        //onlyManufacturer\n        \n        return manufactureAddressArray;\n    }\n\n    function getManufacturer(address _manPublicAddress)\n        public\n        view\n        returns (\n            address manPublicAddress,\n            string memory email,\n            string memory fullName,\n            string memory brand,\n            string memory licenseUri,\n            string memory country,\n            string memory region,\n            string memory state,\n            bool agreement,\n            bool isVerified \n        )       \n    {\n        //onlyManufacturer\n        \n        Manufacturer memory manufacturer = manufacturerDetails[_manPublicAddress];\n        manPublicAddress = manufacturer.manPublicAddress;\n        email = manufacturer.email;\n        fullName = manufacturer.fullName;\n        brand = manufacturer.brand;\n        licenseUri = manufacturer.licenseUri;\n        country = manufacturer.country;\n        region = manufacturer.region;\n        state = manufacturer.state;\n        agreement = manufacturer.agreement;\n        isVerified = manufacturer.isVerified;\n\n    }\n\n    /// @dev returns qrcodeHash array to the manufacturer frontend\n    function getManfItemIDList()\n        external\n        view\n        returns (uint256[] memory)\n    {\n        //onlyManufacturer\n        \n        return manufacturerIDHashArr;\n    }\n\n    /// @dev !! views qrcodeHash and ID one by one. Used when manf wants to match stored ids & hashes to every item\n    function getQrHashAndID(address _manPublicAddress, uint256 _blockId)\n        public\n        view\n        returns (string memory qrHash, uint256 blockId)\n    {\n        //onlyManufacturer\n        \n        qrHash = qrHashMapByManufacturer[_manPublicAddress][_blockId];\n        blockId = _blockId;\n\n    }\n\n    /*@dev matches the stored hashes to each item & returns a bool for evidence */\n    function addProduct(\n        string memory _qrHash,\n        uint256 _blockId,\n        string memory _itemName,\n        string memory _description\n    ) external onlyManufacturer{\n        require(compareStrings(qrHashMapByManufacturer[msg.sender][_blockId],_qrHash),\"Hash isn't stored\");\n        require(matchedItems[_qrHash] = true, \"ID is already matched\");\n        require(storedIDs[_blockId] == true, \"ID isn't stored\");\n        require(bytes(_itemName).length > 0, \"Item name cannot be empty\");\n        require(bytes(_description).length > 0, \"Description cannot be empty\");\n\n        emit ItemAdded_M(_blockId);\n        emit ItemDetailsUpdated_M(_blockId, _itemName, _description);\n        emit ItemRecorded_M(_blockId);\n\n        matchHashToId[_qrHash] = _blockId; //update by matching\n        matchedItems[_qrHash] = true;\n\n        itemDetails[_blockId] = ItemDetails(_blockId, _qrHash, _itemName, _description);\n        productsArray.push(_qrHash);\n    }\n\n    function scanProduct(string memory _qrHash) external view returns (bool) {\n        if (matchedItems[_qrHash]) {\n            return true;\n        } else {\n            return false;\n        }\n    }\n\n    function getProductArray()\n        external\n        view\n        returns (string[] memory)\n    {\n        //onlyManufacturer\n        \n        return productsArray;\n    }\n\n    function getProduct(\n        string memory _qrHash\n    ) external view returns (string memory name, string memory description) {\n        uint256 blockId = matchHashToId[_qrHash];\n        ItemDetails memory itemdetails = itemDetails[blockId];\n        name = itemdetails.itemName;\n        description = itemdetails.description;\n    }\n\n    // Cannot directly compare strings in Solidity\n    // This function hashes the 2 strings and then compares the 2 hashes\n    function compareStrings(\n        string memory a,\n        string memory b\n    ) internal pure returns (bool) {\n        return keccak256(abi.encodePacked(a)) == keccak256(abi.encodePacked(b));\n    }\n}",
  "sourcePath": "/home/temba/alcoshield/contracts/QrCode.sol",
  "compiler": {
    "name": "solc",
    "version": "0.8.19+commit.7dd6d404.Emscripten.clang"
  },
  "schemaVersion": "3.4.16",
  "updatedAt": "2024-03-26T23:41:13.559Z",
  "networkType": "ethereum",
  "devdoc": {
    "kind": "dev",
    "methods": {
      "getManfItemIDList()": {
        "details": "returns qrcodeHash array to the manufacturer frontend"
      },
      "getManufacturerArray()": {
        "details": "returns manufacturer address array to the frontend"
      },
      "getQrHashAndID(address,uint256)": {
        "details": "!! views qrcodeHash and ID one by one. Used when manf wants to match stored ids & hashes to every item"
      },
      "signUpManufacturer(address,string,string,string,string,string,string,string,bool,string)": {
        "details": "Manufacturer functions"
      }
    },
    "version": 1
  },
  "userdoc": {
    "kind": "user",
    "methods": {},
    "version": 1
  }
}